{"contracts/DonationCampaign.sol":{"DonationCampaign":{"abi":[{"anonymous":false,"inputs":[{"indexed":true,"internalType":"address","name":"donor","type":"address"},{"indexed":false,"internalType":"string","name":"fullName","type":"string"},{"indexed":false,"internalType":"uint256","name":"donationAmount","type":"uint256"},{"indexed":false,"internalType":"string","name":"organization","type":"string"},{"indexed":false,"internalType":"string","name":"message","type":"string"}],"name":"DonationReceived","type":"event"},{"inputs":[{"internalType":"string","name":"_fullName","type":"string"},{"internalType":"uint256","name":"_donationAmount","type":"uint256"},{"internalType":"string","name":"_organization","type":"string"},{"internalType":"string","name":"_message","type":"string"}],"name":"donate","outputs":[],"stateMutability":"nonpayable","type":"function"},{"inputs":[{"internalType":"uint256","name":"","type":"uint256"}],"name":"donations","outputs":[{"internalType":"address","name":"donor","type":"address"},{"internalType":"string","name":"fullName","type":"string"},{"internalType":"uint256","name":"donationAmount","type":"uint256"},{"internalType":"string","name":"organization","type":"string"},{"internalType":"string","name":"message","type":"string"}],"stateMutability":"view","type":"function"},{"inputs":[],"name":"getTotalDonations","outputs":[{"internalType":"uint256","name":"","type":"uint256"}],"stateMutability":"view","type":"function"}],"evm":{"bytecode":{"linkReferences":{},"object":"608060405234801561001057600080fd5b50610d55806100206000396000f3fe608060405234801561001057600080fd5b50600436106100415760003560e01c8063496f85f814610046578063777c658f14610062578063f8626af814610080575b600080fd5b610060600480360381019061005b9190610641565b6100b4565b005b61006a61024e565b604051610077919061070b565b60405180910390f35b61009a60048036038101906100959190610726565b6102b3565b6040516100ab959493929190610813565b60405180910390f35b600083116100f7576040517f08c379a00000000000000000000000000000000000000000000000000000000081526004016100ee906108ed565b60405180910390fd5b60006040518060a001604052803373ffffffffffffffffffffffffffffffffffffffff16815260200186815260200185815260200184815260200183815250908060018154018082558091505060019003906000526020600020906005020160009091909190915060008201518160000160006101000a81548173ffffffffffffffffffffffffffffffffffffffff021916908373ffffffffffffffffffffffffffffffffffffffff16021790555060208201518160010190816101bb9190610b19565b506040820151816002015560608201518160030190816101db9190610b19565b5060808201518160040190816101f19190610b19565b5050503373ffffffffffffffffffffffffffffffffffffffff167f90a1c73cdf21aafb5ccb27362b4b4515538d99f548b32a4d569a6d83a86a6248858585856040516102409493929190610beb565b60405180910390a250505050565b6000806000905060005b6000805490508110156102ab576000818154811061027957610278610c45565b5b906000526020600020906005020160020154826102969190610ca3565b915080806102a390610cd7565b915050610258565b508091505090565b600081815481106102c357600080fd5b90600052602060002090600502016000915090508060000160009054906101000a900473ffffffffffffffffffffffffffffffffffffffff169080600101805461030c9061093c565b80601f01602080910402602001604051908101604052809291908181526020018280546103389061093c565b80156103855780601f1061035a57610100808354040283529160200191610385565b820191906000526020600020905b81548152906001019060200180831161036857829003601f168201915b5050505050908060020154908060030180546103a09061093c565b80601f01602080910402602001604051908101604052809291908181526020018280546103cc9061093c565b80156104195780601f106103ee57610100808354040283529160200191610419565b820191906000526020600020905b8154815290600101906020018083116103fc57829003601f168201915b50505050509080600401805461042e9061093c565b80601f016020809104026020016040519081016040528092919081815260200182805461045a9061093c565b80156104a75780601f1061047c576101008083540402835291602001916104a7565b820191906000526020600020905b81548152906001019060200180831161048a57829003601f168201915b5050505050905085565b6000604051905090565b600080fd5b600080fd5b600080fd5b600080fd5b6000601f19601f8301169050919050565b7f4e487b7100000000000000000000000000000000000000000000000000000000600052604160045260246000fd5b610518826104cf565b810181811067ffffffffffffffff82111715610537576105366104e0565b5b80604052505050565b600061054a6104b1565b9050610556828261050f565b919050565b600067ffffffffffffffff821115610576576105756104e0565b5b61057f826104cf565b9050602081019050919050565b82818337600083830152505050565b60006105ae6105a98461055b565b610540565b9050828152602081018484840111156105ca576105c96104ca565b5b6105d584828561058c565b509392505050565b600082601f8301126105f2576105f16104c5565b5b813561060284826020860161059b565b91505092915050565b6000819050919050565b61061e8161060b565b811461062957600080fd5b50565b60008135905061063b81610615565b92915050565b6000806000806080858703121561065b5761065a6104bb565b5b600085013567ffffffffffffffff811115610679576106786104c0565b5b610685878288016105dd565b94505060206106968782880161062c565b935050604085013567ffffffffffffffff8111156106b7576106b66104c0565b5b6106c3878288016105dd565b925050606085013567ffffffffffffffff8111156106e4576106e36104c0565b5b6106f0878288016105dd565b91505092959194509250565b6107058161060b565b82525050565b600060208201905061072060008301846106fc565b92915050565b60006020828403121561073c5761073b6104bb565b5b600061074a8482850161062c565b91505092915050565b600073ffffffffffffffffffffffffffffffffffffffff82169050919050565b600061077e82610753565b9050919050565b61078e81610773565b82525050565b600081519050919050565b600082825260208201905092915050565b60005b838110156107ce5780820151818401526020810190506107b3565b60008484015250505050565b60006107e582610794565b6107ef818561079f565b93506107ff8185602086016107b0565b610808816104cf565b840191505092915050565b600060a0820190506108286000830188610785565b818103602083015261083a81876107da565b905061084960408301866106fc565b818103606083015261085b81856107da565b9050818103608083015261086f81846107da565b90509695505050505050565b7f446f6e6174696f6e20616d6f756e74206d75737420626520677265617465722060008201527f7468616e20300000000000000000000000000000000000000000000000000000602082015250565b60006108d760268361079f565b91506108e28261087b565b604082019050919050565b60006020820190508181036000830152610906816108ca565b9050919050565b7f4e487b7100000000000000000000000000000000000000000000000000000000600052602260045260246000fd5b6000600282049050600182168061095457607f821691505b6020821081036109675761096661090d565b5b50919050565b60008190508160005260206000209050919050565b60006020601f8301049050919050565b600082821b905092915050565b6000600883026109cf7fffffffffffffffffffffffffffffffffffffffffffffffffffffffffffffffff82610992565b6109d98683610992565b95508019841693508086168417925050509392505050565b6000819050919050565b6000610a16610a11610a0c8461060b565b6109f1565b61060b565b9050919050565b6000819050919050565b610a30836109fb565b610a44610a3c82610a1d565b84845461099f565b825550505050565b600090565b610a59610a4c565b610a64818484610a27565b505050565b5b81811015610a8857610a7d600082610a51565b600181019050610a6a565b5050565b601f821115610acd57610a9e8161096d565b610aa784610982565b81016020851015610ab6578190505b610aca610ac285610982565b830182610a69565b50505b505050565b600082821c905092915050565b6000610af060001984600802610ad2565b1980831691505092915050565b6000610b098383610adf565b9150826002028217905092915050565b610b2282610794565b67ffffffffffffffff811115610b3b57610b3a6104e0565b5b610b45825461093c565b610b50828285610a8c565b600060209050601f831160018114610b835760008415610b71578287015190505b610b7b8582610afd565b865550610be3565b601f198416610b918661096d565b60005b82811015610bb957848901518255600182019150602085019450602081019050610b94565b86831015610bd65784890151610bd2601f891682610adf565b8355505b6001600288020188555050505b505050505050565b60006080820190508181036000830152610c0581876107da565b9050610c1460208301866106fc565b8181036040830152610c2681856107da565b90508181036060830152610c3a81846107da565b905095945050505050565b7f4e487b7100000000000000000000000000000000000000000000000000000000600052603260045260246000fd5b7f4e487b7100000000000000000000000000000000000000000000000000000000600052601160045260246000fd5b6000610cae8261060b565b9150610cb98361060b565b9250828201905080821115610cd157610cd0610c74565b5b92915050565b6000610ce28261060b565b91507fffffffffffffffffffffffffffffffffffffffffffffffffffffffffffffffff8203610d1457610d13610c74565b5b60018201905091905056fea264697066735822122092af291fc13ce50a5f9b03a10aa7a9e90f76d71fe02dc17a9f0566bd907a3c9e64736f6c63430008120033","opcodes":"PUSH1 0x80 PUSH1 0x40 MSTORE CALLVALUE DUP1 ISZERO PUSH2 0x10 JUMPI PUSH1 0x0 DUP1 REVERT JUMPDEST POP PUSH2 0xD55 DUP1 PUSH2 0x20 PUSH1 0x0 CODECOPY PUSH1 0x0 RETURN INVALID PUSH1 0x80 PUSH1 0x40 MSTORE CALLVALUE DUP1 ISZERO PUSH2 0x10 JUMPI PUSH1 0x0 DUP1 REVERT JUMPDEST POP PUSH1 0x4 CALLDATASIZE LT PUSH2 0x41 JUMPI PUSH1 0x0 CALLDATALOAD PUSH1 0xE0 SHR DUP1 PUSH4 0x496F85F8 EQ PUSH2 0x46 JUMPI DUP1 PUSH4 0x777C658F EQ PUSH2 0x62 JUMPI DUP1 PUSH4 0xF8626AF8 EQ PUSH2 0x80 JUMPI JUMPDEST PUSH1 0x0 DUP1 REVERT JUMPDEST PUSH2 0x60 PUSH1 0x4 DUP1 CALLDATASIZE SUB DUP2 ADD SWAP1 PUSH2 0x5B SWAP2 SWAP1 PUSH2 0x641 JUMP JUMPDEST PUSH2 0xB4 JUMP JUMPDEST STOP JUMPDEST PUSH2 0x6A PUSH2 0x24E JUMP JUMPDEST PUSH1 0x40 MLOAD PUSH2 0x77 SWAP2 SWAP1 PUSH2 0x70B JUMP JUMPDEST PUSH1 0x40 MLOAD DUP1 SWAP2 SUB SWAP1 RETURN JUMPDEST PUSH2 0x9A PUSH1 0x4 DUP1 CALLDATASIZE SUB DUP2 ADD SWAP1 PUSH2 0x95 SWAP2 SWAP1 PUSH2 0x726 JUMP JUMPDEST PUSH2 0x2B3 JUMP JUMPDEST PUSH1 0x40 MLOAD PUSH2 0xAB SWAP6 SWAP5 SWAP4 SWAP3 SWAP2 SWAP1 PUSH2 0x813 JUMP JUMPDEST PUSH1 0x40 MLOAD DUP1 SWAP2 SUB SWAP1 RETURN JUMPDEST PUSH1 0x0 DUP4 GT PUSH2 0xF7 JUMPI PUSH1 0x40 MLOAD PUSH32 0x8C379A000000000000000000000000000000000000000000000000000000000 DUP2 MSTORE PUSH1 0x4 ADD PUSH2 0xEE SWAP1 PUSH2 0x8ED JUMP JUMPDEST PUSH1 0x40 MLOAD DUP1 SWAP2 SUB SWAP1 REVERT JUMPDEST PUSH1 0x0 PUSH1 0x40 MLOAD DUP1 PUSH1 0xA0 ADD PUSH1 0x40 MSTORE DUP1 CALLER PUSH20 0xFFFFFFFFFFFFFFFFFFFFFFFFFFFFFFFFFFFFFFFF AND DUP2 MSTORE PUSH1 0x20 ADD DUP7 DUP2 MSTORE PUSH1 0x20 ADD DUP6 DUP2 MSTORE PUSH1 0x20 ADD DUP5 DUP2 MSTORE PUSH1 0x20 ADD DUP4 DUP2 MSTORE POP SWAP1 DUP1 PUSH1 0x1 DUP2 SLOAD ADD DUP1 DUP3 SSTORE DUP1 SWAP2 POP POP PUSH1 0x1 SWAP1 SUB SWAP1 PUSH1 0x0 MSTORE PUSH1 0x20 PUSH1 0x0 KECCAK256 SWAP1 PUSH1 0x5 MUL ADD PUSH1 0x0 SWAP1 SWAP2 SWAP1 SWAP2 SWAP1 SWAP2 POP PUSH1 0x0 DUP3 ADD MLOAD DUP2 PUSH1 0x0 ADD PUSH1 0x0 PUSH2 0x100 EXP DUP2 SLOAD DUP2 PUSH20 0xFFFFFFFFFFFFFFFFFFFFFFFFFFFFFFFFFFFFFFFF MUL NOT AND SWAP1 DUP4 PUSH20 0xFFFFFFFFFFFFFFFFFFFFFFFFFFFFFFFFFFFFFFFF AND MUL OR SWAP1 SSTORE POP PUSH1 0x20 DUP3 ADD MLOAD DUP2 PUSH1 0x1 ADD SWAP1 DUP2 PUSH2 0x1BB SWAP2 SWAP1 PUSH2 0xB19 JUMP JUMPDEST POP PUSH1 0x40 DUP3 ADD MLOAD DUP2 PUSH1 0x2 ADD SSTORE PUSH1 0x60 DUP3 ADD MLOAD DUP2 PUSH1 0x3 ADD SWAP1 DUP2 PUSH2 0x1DB SWAP2 SWAP1 PUSH2 0xB19 JUMP JUMPDEST POP PUSH1 0x80 DUP3 ADD MLOAD DUP2 PUSH1 0x4 ADD SWAP1 DUP2 PUSH2 0x1F1 SWAP2 SWAP1 PUSH2 0xB19 JUMP JUMPDEST POP POP POP CALLER PUSH20 0xFFFFFFFFFFFFFFFFFFFFFFFFFFFFFFFFFFFFFFFF AND PUSH32 0x90A1C73CDF21AAFB5CCB27362B4B4515538D99F548B32A4D569A6D83A86A6248 DUP6 DUP6 DUP6 DUP6 PUSH1 0x40 MLOAD PUSH2 0x240 SWAP5 SWAP4 SWAP3 SWAP2 SWAP1 PUSH2 0xBEB JUMP JUMPDEST PUSH1 0x40 MLOAD DUP1 SWAP2 SUB SWAP1 LOG2 POP POP POP POP JUMP JUMPDEST PUSH1 0x0 DUP1 PUSH1 0x0 SWAP1 POP PUSH1 0x0 JUMPDEST PUSH1 0x0 DUP1 SLOAD SWAP1 POP DUP2 LT ISZERO PUSH2 0x2AB JUMPI PUSH1 0x0 DUP2 DUP2 SLOAD DUP2 LT PUSH2 0x279 JUMPI PUSH2 0x278 PUSH2 0xC45 JUMP JUMPDEST JUMPDEST SWAP1 PUSH1 0x0 MSTORE PUSH1 0x20 PUSH1 0x0 KECCAK256 SWAP1 PUSH1 0x5 MUL ADD PUSH1 0x2 ADD SLOAD DUP3 PUSH2 0x296 SWAP2 SWAP1 PUSH2 0xCA3 JUMP JUMPDEST SWAP2 POP DUP1 DUP1 PUSH2 0x2A3 SWAP1 PUSH2 0xCD7 JUMP JUMPDEST SWAP2 POP POP PUSH2 0x258 JUMP JUMPDEST POP DUP1 SWAP2 POP POP SWAP1 JUMP JUMPDEST PUSH1 0x0 DUP2 DUP2 SLOAD DUP2 LT PUSH2 0x2C3 JUMPI PUSH1 0x0 DUP1 REVERT JUMPDEST SWAP1 PUSH1 0x0 MSTORE PUSH1 0x20 PUSH1 0x0 KECCAK256 SWAP1 PUSH1 0x5 MUL ADD PUSH1 0x0 SWAP2 POP SWAP1 POP DUP1 PUSH1 0x0 ADD PUSH1 0x0 SWAP1 SLOAD SWAP1 PUSH2 0x100 EXP SWAP1 DIV PUSH20 0xFFFFFFFFFFFFFFFFFFFFFFFFFFFFFFFFFFFFFFFF AND SWAP1 DUP1 PUSH1 0x1 ADD DUP1 SLOAD PUSH2 0x30C SWAP1 PUSH2 0x93C JUMP JUMPDEST DUP1 PUSH1 0x1F ADD PUSH1 0x20 DUP1 SWAP2 DIV MUL PUSH1 0x20 ADD PUSH1 0x40 MLOAD SWAP1 DUP2 ADD PUSH1 0x40 MSTORE DUP1 SWAP3 SWAP2 SWAP1 DUP2 DUP2 MSTORE PUSH1 0x20 ADD DUP3 DUP1 SLOAD PUSH2 0x338 SWAP1 PUSH2 0x93C JUMP JUMPDEST DUP1 ISZERO PUSH2 0x385 JUMPI DUP1 PUSH1 0x1F LT PUSH2 0x35A JUMPI PUSH2 0x100 DUP1 DUP4 SLOAD DIV MUL DUP4 MSTORE SWAP2 PUSH1 0x20 ADD SWAP2 PUSH2 0x385 JUMP JUMPDEST DUP3 ADD SWAP2 SWAP1 PUSH1 0x0 MSTORE PUSH1 0x20 PUSH1 0x0 KECCAK256 SWAP1 JUMPDEST DUP2 SLOAD DUP2 MSTORE SWAP1 PUSH1 0x1 ADD SWAP1 PUSH1 0x20 ADD DUP1 DUP4 GT PUSH2 0x368 JUMPI DUP3 SWAP1 SUB PUSH1 0x1F AND DUP3 ADD SWAP2 JUMPDEST POP POP POP POP POP SWAP1 DUP1 PUSH1 0x2 ADD SLOAD SWAP1 DUP1 PUSH1 0x3 ADD DUP1 SLOAD PUSH2 0x3A0 SWAP1 PUSH2 0x93C JUMP JUMPDEST DUP1 PUSH1 0x1F ADD PUSH1 0x20 DUP1 SWAP2 DIV MUL PUSH1 0x20 ADD PUSH1 0x40 MLOAD SWAP1 DUP2 ADD PUSH1 0x40 MSTORE DUP1 SWAP3 SWAP2 SWAP1 DUP2 DUP2 MSTORE PUSH1 0x20 ADD DUP3 DUP1 SLOAD PUSH2 0x3CC SWAP1 PUSH2 0x93C JUMP JUMPDEST DUP1 ISZERO PUSH2 0x419 JUMPI DUP1 PUSH1 0x1F LT PUSH2 0x3EE JUMPI PUSH2 0x100 DUP1 DUP4 SLOAD DIV MUL DUP4 MSTORE SWAP2 PUSH1 0x20 ADD SWAP2 PUSH2 0x419 JUMP JUMPDEST DUP3 ADD SWAP2 SWAP1 PUSH1 0x0 MSTORE PUSH1 0x20 PUSH1 0x0 KECCAK256 SWAP1 JUMPDEST DUP2 SLOAD DUP2 MSTORE SWAP1 PUSH1 0x1 ADD SWAP1 PUSH1 0x20 ADD DUP1 DUP4 GT PUSH2 0x3FC JUMPI DUP3 SWAP1 SUB PUSH1 0x1F AND DUP3 ADD SWAP2 JUMPDEST POP POP POP POP POP SWAP1 DUP1 PUSH1 0x4 ADD DUP1 SLOAD PUSH2 0x42E SWAP1 PUSH2 0x93C JUMP JUMPDEST DUP1 PUSH1 0x1F ADD PUSH1 0x20 DUP1 SWAP2 DIV MUL PUSH1 0x20 ADD PUSH1 0x40 MLOAD SWAP1 DUP2 ADD PUSH1 0x40 MSTORE DUP1 SWAP3 SWAP2 SWAP1 DUP2 DUP2 MSTORE PUSH1 0x20 ADD DUP3 DUP1 SLOAD PUSH2 0x45A SWAP1 PUSH2 0x93C JUMP JUMPDEST DUP1 ISZERO PUSH2 0x4A7 JUMPI DUP1 PUSH1 0x1F LT PUSH2 0x47C JUMPI PUSH2 0x100 DUP1 DUP4 SLOAD DIV MUL DUP4 MSTORE SWAP2 PUSH1 0x20 ADD SWAP2 PUSH2 0x4A7 JUMP JUMPDEST DUP3 ADD SWAP2 SWAP1 PUSH1 0x0 MSTORE PUSH1 0x20 PUSH1 0x0 KECCAK256 SWAP1 JUMPDEST DUP2 SLOAD DUP2 MSTORE SWAP1 PUSH1 0x1 ADD SWAP1 PUSH1 0x20 ADD DUP1 DUP4 GT PUSH2 0x48A JUMPI DUP3 SWAP1 SUB PUSH1 0x1F AND DUP3 ADD SWAP2 JUMPDEST POP POP POP POP POP SWAP1 POP DUP6 JUMP JUMPDEST PUSH1 0x0 PUSH1 0x40 MLOAD SWAP1 POP SWAP1 JUMP JUMPDEST PUSH1 0x0 DUP1 REVERT JUMPDEST PUSH1 0x0 DUP1 REVERT JUMPDEST PUSH1 0x0 DUP1 REVERT JUMPDEST PUSH1 0x0 DUP1 REVERT JUMPDEST PUSH1 0x0 PUSH1 0x1F NOT PUSH1 0x1F DUP4 ADD AND SWAP1 POP SWAP2 SWAP1 POP JUMP JUMPDEST PUSH32 0x4E487B7100000000000000000000000000000000000000000000000000000000 PUSH1 0x0 MSTORE PUSH1 0x41 PUSH1 0x4 MSTORE PUSH1 0x24 PUSH1 0x0 REVERT JUMPDEST PUSH2 0x518 DUP3 PUSH2 0x4CF JUMP JUMPDEST DUP2 ADD DUP2 DUP2 LT PUSH8 0xFFFFFFFFFFFFFFFF DUP3 GT OR ISZERO PUSH2 0x537 JUMPI PUSH2 0x536 PUSH2 0x4E0 JUMP JUMPDEST JUMPDEST DUP1 PUSH1 0x40 MSTORE POP POP POP JUMP JUMPDEST PUSH1 0x0 PUSH2 0x54A PUSH2 0x4B1 JUMP JUMPDEST SWAP1 POP PUSH2 0x556 DUP3 DUP3 PUSH2 0x50F JUMP JUMPDEST SWAP2 SWAP1 POP JUMP JUMPDEST PUSH1 0x0 PUSH8 0xFFFFFFFFFFFFFFFF DUP3 GT ISZERO PUSH2 0x576 JUMPI PUSH2 0x575 PUSH2 0x4E0 JUMP JUMPDEST JUMPDEST PUSH2 0x57F DUP3 PUSH2 0x4CF JUMP JUMPDEST SWAP1 POP PUSH1 0x20 DUP2 ADD SWAP1 POP SWAP2 SWAP1 POP JUMP JUMPDEST DUP3 DUP2 DUP4 CALLDATACOPY PUSH1 0x0 DUP4 DUP4 ADD MSTORE POP POP POP JUMP JUMPDEST PUSH1 0x0 PUSH2 0x5AE PUSH2 0x5A9 DUP5 PUSH2 0x55B JUMP JUMPDEST PUSH2 0x540 JUMP JUMPDEST SWAP1 POP DUP3 DUP2 MSTORE PUSH1 0x20 DUP2 ADD DUP5 DUP5 DUP5 ADD GT ISZERO PUSH2 0x5CA JUMPI PUSH2 0x5C9 PUSH2 0x4CA JUMP JUMPDEST JUMPDEST PUSH2 0x5D5 DUP5 DUP3 DUP6 PUSH2 0x58C JUMP JUMPDEST POP SWAP4 SWAP3 POP POP POP JUMP JUMPDEST PUSH1 0x0 DUP3 PUSH1 0x1F DUP4 ADD SLT PUSH2 0x5F2 JUMPI PUSH2 0x5F1 PUSH2 0x4C5 JUMP JUMPDEST JUMPDEST DUP2 CALLDATALOAD PUSH2 0x602 DUP5 DUP3 PUSH1 0x20 DUP7 ADD PUSH2 0x59B JUMP JUMPDEST SWAP2 POP POP SWAP3 SWAP2 POP POP JUMP JUMPDEST PUSH1 0x0 DUP2 SWAP1 POP SWAP2 SWAP1 POP JUMP JUMPDEST PUSH2 0x61E DUP2 PUSH2 0x60B JUMP JUMPDEST DUP2 EQ PUSH2 0x629 JUMPI PUSH1 0x0 DUP1 REVERT JUMPDEST POP JUMP JUMPDEST PUSH1 0x0 DUP2 CALLDATALOAD SWAP1 POP PUSH2 0x63B DUP2 PUSH2 0x615 JUMP JUMPDEST SWAP3 SWAP2 POP POP JUMP JUMPDEST PUSH1 0x0 DUP1 PUSH1 0x0 DUP1 PUSH1 0x80 DUP6 DUP8 SUB SLT ISZERO PUSH2 0x65B JUMPI PUSH2 0x65A PUSH2 0x4BB JUMP JUMPDEST JUMPDEST PUSH1 0x0 DUP6 ADD CALLDATALOAD PUSH8 0xFFFFFFFFFFFFFFFF DUP2 GT ISZERO PUSH2 0x679 JUMPI PUSH2 0x678 PUSH2 0x4C0 JUMP JUMPDEST JUMPDEST PUSH2 0x685 DUP8 DUP3 DUP9 ADD PUSH2 0x5DD JUMP JUMPDEST SWAP5 POP POP PUSH1 0x20 PUSH2 0x696 DUP8 DUP3 DUP9 ADD PUSH2 0x62C JUMP JUMPDEST SWAP4 POP POP PUSH1 0x40 DUP6 ADD CALLDATALOAD PUSH8 0xFFFFFFFFFFFFFFFF DUP2 GT ISZERO PUSH2 0x6B7 JUMPI PUSH2 0x6B6 PUSH2 0x4C0 JUMP JUMPDEST JUMPDEST PUSH2 0x6C3 DUP8 DUP3 DUP9 ADD PUSH2 0x5DD JUMP JUMPDEST SWAP3 POP POP PUSH1 0x60 DUP6 ADD CALLDATALOAD PUSH8 0xFFFFFFFFFFFFFFFF DUP2 GT ISZERO PUSH2 0x6E4 JUMPI PUSH2 0x6E3 PUSH2 0x4C0 JUMP JUMPDEST JUMPDEST PUSH2 0x6F0 DUP8 DUP3 DUP9 ADD PUSH2 0x5DD JUMP JUMPDEST SWAP2 POP POP SWAP3 SWAP6 SWAP2 SWAP5 POP SWAP3 POP JUMP JUMPDEST PUSH2 0x705 DUP2 PUSH2 0x60B JUMP JUMPDEST DUP3 MSTORE POP POP JUMP JUMPDEST PUSH1 0x0 PUSH1 0x20 DUP3 ADD SWAP1 POP PUSH2 0x720 PUSH1 0x0 DUP4 ADD DUP5 PUSH2 0x6FC JUMP JUMPDEST SWAP3 SWAP2 POP POP JUMP JUMPDEST PUSH1 0x0 PUSH1 0x20 DUP3 DUP5 SUB SLT ISZERO PUSH2 0x73C JUMPI PUSH2 0x73B PUSH2 0x4BB JUMP JUMPDEST JUMPDEST PUSH1 0x0 PUSH2 0x74A DUP5 DUP3 DUP6 ADD PUSH2 0x62C JUMP JUMPDEST SWAP2 POP POP SWAP3 SWAP2 POP POP JUMP JUMPDEST PUSH1 0x0 PUSH20 0xFFFFFFFFFFFFFFFFFFFFFFFFFFFFFFFFFFFFFFFF DUP3 AND SWAP1 POP SWAP2 SWAP1 POP JUMP JUMPDEST PUSH1 0x0 PUSH2 0x77E DUP3 PUSH2 0x753 JUMP JUMPDEST SWAP1 POP SWAP2 SWAP1 POP JUMP JUMPDEST PUSH2 0x78E DUP2 PUSH2 0x773 JUMP JUMPDEST DUP3 MSTORE POP POP JUMP JUMPDEST PUSH1 0x0 DUP2 MLOAD SWAP1 POP SWAP2 SWAP1 POP JUMP JUMPDEST PUSH1 0x0 DUP3 DUP3 MSTORE PUSH1 0x20 DUP3 ADD SWAP1 POP SWAP3 SWAP2 POP POP JUMP JUMPDEST PUSH1 0x0 JUMPDEST DUP4 DUP2 LT ISZERO PUSH2 0x7CE JUMPI DUP1 DUP3 ADD MLOAD DUP2 DUP5 ADD MSTORE PUSH1 0x20 DUP2 ADD SWAP1 POP PUSH2 0x7B3 JUMP JUMPDEST PUSH1 0x0 DUP5 DUP5 ADD MSTORE POP POP POP POP JUMP JUMPDEST PUSH1 0x0 PUSH2 0x7E5 DUP3 PUSH2 0x794 JUMP JUMPDEST PUSH2 0x7EF DUP2 DUP6 PUSH2 0x79F JUMP JUMPDEST SWAP4 POP PUSH2 0x7FF DUP2 DUP6 PUSH1 0x20 DUP7 ADD PUSH2 0x7B0 JUMP JUMPDEST PUSH2 0x808 DUP2 PUSH2 0x4CF JUMP JUMPDEST DUP5 ADD SWAP2 POP POP SWAP3 SWAP2 POP POP JUMP JUMPDEST PUSH1 0x0 PUSH1 0xA0 DUP3 ADD SWAP1 POP PUSH2 0x828 PUSH1 0x0 DUP4 ADD DUP9 PUSH2 0x785 JUMP JUMPDEST DUP2 DUP2 SUB PUSH1 0x20 DUP4 ADD MSTORE PUSH2 0x83A DUP2 DUP8 PUSH2 0x7DA JUMP JUMPDEST SWAP1 POP PUSH2 0x849 PUSH1 0x40 DUP4 ADD DUP7 PUSH2 0x6FC JUMP JUMPDEST DUP2 DUP2 SUB PUSH1 0x60 DUP4 ADD MSTORE PUSH2 0x85B DUP2 DUP6 PUSH2 0x7DA JUMP JUMPDEST SWAP1 POP DUP2 DUP2 SUB PUSH1 0x80 DUP4 ADD MSTORE PUSH2 0x86F DUP2 DUP5 PUSH2 0x7DA JUMP JUMPDEST SWAP1 POP SWAP7 SWAP6 POP POP POP POP POP POP JUMP JUMPDEST PUSH32 0x446F6E6174696F6E20616D6F756E74206D757374206265206772656174657220 PUSH1 0x0 DUP3 ADD MSTORE PUSH32 0x7468616E20300000000000000000000000000000000000000000000000000000 PUSH1 0x20 DUP3 ADD MSTORE POP JUMP JUMPDEST PUSH1 0x0 PUSH2 0x8D7 PUSH1 0x26 DUP4 PUSH2 0x79F JUMP JUMPDEST SWAP2 POP PUSH2 0x8E2 DUP3 PUSH2 0x87B JUMP JUMPDEST PUSH1 0x40 DUP3 ADD SWAP1 POP SWAP2 SWAP1 POP JUMP JUMPDEST PUSH1 0x0 PUSH1 0x20 DUP3 ADD SWAP1 POP DUP2 DUP2 SUB PUSH1 0x0 DUP4 ADD MSTORE PUSH2 0x906 DUP2 PUSH2 0x8CA JUMP JUMPDEST SWAP1 POP SWAP2 SWAP1 POP JUMP JUMPDEST PUSH32 0x4E487B7100000000000000000000000000000000000000000000000000000000 PUSH1 0x0 MSTORE PUSH1 0x22 PUSH1 0x4 MSTORE PUSH1 0x24 PUSH1 0x0 REVERT JUMPDEST PUSH1 0x0 PUSH1 0x2 DUP3 DIV SWAP1 POP PUSH1 0x1 DUP3 AND DUP1 PUSH2 0x954 JUMPI PUSH1 0x7F DUP3 AND SWAP2 POP JUMPDEST PUSH1 0x20 DUP3 LT DUP2 SUB PUSH2 0x967 JUMPI PUSH2 0x966 PUSH2 0x90D JUMP JUMPDEST JUMPDEST POP SWAP2 SWAP1 POP JUMP JUMPDEST PUSH1 0x0 DUP2 SWAP1 POP DUP2 PUSH1 0x0 MSTORE PUSH1 0x20 PUSH1 0x0 KECCAK256 SWAP1 POP SWAP2 SWAP1 POP JUMP JUMPDEST PUSH1 0x0 PUSH1 0x20 PUSH1 0x1F DUP4 ADD DIV SWAP1 POP SWAP2 SWAP1 POP JUMP JUMPDEST PUSH1 0x0 DUP3 DUP3 SHL SWAP1 POP SWAP3 SWAP2 POP POP JUMP JUMPDEST PUSH1 0x0 PUSH1 0x8 DUP4 MUL PUSH2 0x9CF PUSH32 0xFFFFFFFFFFFFFFFFFFFFFFFFFFFFFFFFFFFFFFFFFFFFFFFFFFFFFFFFFFFFFFFF DUP3 PUSH2 0x992 JUMP JUMPDEST PUSH2 0x9D9 DUP7 DUP4 PUSH2 0x992 JUMP JUMPDEST SWAP6 POP DUP1 NOT DUP5 AND SWAP4 POP DUP1 DUP7 AND DUP5 OR SWAP3 POP POP POP SWAP4 SWAP3 POP POP POP JUMP JUMPDEST PUSH1 0x0 DUP2 SWAP1 POP SWAP2 SWAP1 POP JUMP JUMPDEST PUSH1 0x0 PUSH2 0xA16 PUSH2 0xA11 PUSH2 0xA0C DUP5 PUSH2 0x60B JUMP JUMPDEST PUSH2 0x9F1 JUMP JUMPDEST PUSH2 0x60B JUMP JUMPDEST SWAP1 POP SWAP2 SWAP1 POP JUMP JUMPDEST PUSH1 0x0 DUP2 SWAP1 POP SWAP2 SWAP1 POP JUMP JUMPDEST PUSH2 0xA30 DUP4 PUSH2 0x9FB JUMP JUMPDEST PUSH2 0xA44 PUSH2 0xA3C DUP3 PUSH2 0xA1D JUMP JUMPDEST DUP5 DUP5 SLOAD PUSH2 0x99F JUMP JUMPDEST DUP3 SSTORE POP POP POP POP JUMP JUMPDEST PUSH1 0x0 SWAP1 JUMP JUMPDEST PUSH2 0xA59 PUSH2 0xA4C JUMP JUMPDEST PUSH2 0xA64 DUP2 DUP5 DUP5 PUSH2 0xA27 JUMP JUMPDEST POP POP POP JUMP JUMPDEST JUMPDEST DUP2 DUP2 LT ISZERO PUSH2 0xA88 JUMPI PUSH2 0xA7D PUSH1 0x0 DUP3 PUSH2 0xA51 JUMP JUMPDEST PUSH1 0x1 DUP2 ADD SWAP1 POP PUSH2 0xA6A JUMP JUMPDEST POP POP JUMP JUMPDEST PUSH1 0x1F DUP3 GT ISZERO PUSH2 0xACD JUMPI PUSH2 0xA9E DUP2 PUSH2 0x96D JUMP JUMPDEST PUSH2 0xAA7 DUP5 PUSH2 0x982 JUMP JUMPDEST DUP2 ADD PUSH1 0x20 DUP6 LT ISZERO PUSH2 0xAB6 JUMPI DUP2 SWAP1 POP JUMPDEST PUSH2 0xACA PUSH2 0xAC2 DUP6 PUSH2 0x982 JUMP JUMPDEST DUP4 ADD DUP3 PUSH2 0xA69 JUMP JUMPDEST POP POP JUMPDEST POP POP POP JUMP JUMPDEST PUSH1 0x0 DUP3 DUP3 SHR SWAP1 POP SWAP3 SWAP2 POP POP JUMP JUMPDEST PUSH1 0x0 PUSH2 0xAF0 PUSH1 0x0 NOT DUP5 PUSH1 0x8 MUL PUSH2 0xAD2 JUMP JUMPDEST NOT DUP1 DUP4 AND SWAP2 POP POP SWAP3 SWAP2 POP POP JUMP JUMPDEST PUSH1 0x0 PUSH2 0xB09 DUP4 DUP4 PUSH2 0xADF JUMP JUMPDEST SWAP2 POP DUP3 PUSH1 0x2 MUL DUP3 OR SWAP1 POP SWAP3 SWAP2 POP POP JUMP JUMPDEST PUSH2 0xB22 DUP3 PUSH2 0x794 JUMP JUMPDEST PUSH8 0xFFFFFFFFFFFFFFFF DUP2 GT ISZERO PUSH2 0xB3B JUMPI PUSH2 0xB3A PUSH2 0x4E0 JUMP JUMPDEST JUMPDEST PUSH2 0xB45 DUP3 SLOAD PUSH2 0x93C JUMP JUMPDEST PUSH2 0xB50 DUP3 DUP3 DUP6 PUSH2 0xA8C JUMP JUMPDEST PUSH1 0x0 PUSH1 0x20 SWAP1 POP PUSH1 0x1F DUP4 GT PUSH1 0x1 DUP2 EQ PUSH2 0xB83 JUMPI PUSH1 0x0 DUP5 ISZERO PUSH2 0xB71 JUMPI DUP3 DUP8 ADD MLOAD SWAP1 POP JUMPDEST PUSH2 0xB7B DUP6 DUP3 PUSH2 0xAFD JUMP JUMPDEST DUP7 SSTORE POP PUSH2 0xBE3 JUMP JUMPDEST PUSH1 0x1F NOT DUP5 AND PUSH2 0xB91 DUP7 PUSH2 0x96D JUMP JUMPDEST PUSH1 0x0 JUMPDEST DUP3 DUP2 LT ISZERO PUSH2 0xBB9 JUMPI DUP5 DUP10 ADD MLOAD DUP3 SSTORE PUSH1 0x1 DUP3 ADD SWAP2 POP PUSH1 0x20 DUP6 ADD SWAP5 POP PUSH1 0x20 DUP2 ADD SWAP1 POP PUSH2 0xB94 JUMP JUMPDEST DUP7 DUP4 LT ISZERO PUSH2 0xBD6 JUMPI DUP5 DUP10 ADD MLOAD PUSH2 0xBD2 PUSH1 0x1F DUP10 AND DUP3 PUSH2 0xADF JUMP JUMPDEST DUP4 SSTORE POP JUMPDEST PUSH1 0x1 PUSH1 0x2 DUP9 MUL ADD DUP9 SSTORE POP POP POP JUMPDEST POP POP POP POP POP POP JUMP JUMPDEST PUSH1 0x0 PUSH1 0x80 DUP3 ADD SWAP1 POP DUP2 DUP2 SUB PUSH1 0x0 DUP4 ADD MSTORE PUSH2 0xC05 DUP2 DUP8 PUSH2 0x7DA JUMP JUMPDEST SWAP1 POP PUSH2 0xC14 PUSH1 0x20 DUP4 ADD DUP7 PUSH2 0x6FC JUMP JUMPDEST DUP2 DUP2 SUB PUSH1 0x40 DUP4 ADD MSTORE PUSH2 0xC26 DUP2 DUP6 PUSH2 0x7DA JUMP JUMPDEST SWAP1 POP DUP2 DUP2 SUB PUSH1 0x60 DUP4 ADD MSTORE PUSH2 0xC3A DUP2 DUP5 PUSH2 0x7DA JUMP JUMPDEST SWAP1 POP SWAP6 SWAP5 POP POP POP POP POP JUMP JUMPDEST PUSH32 0x4E487B7100000000000000000000000000000000000000000000000000000000 PUSH1 0x0 MSTORE PUSH1 0x32 PUSH1 0x4 MSTORE PUSH1 0x24 PUSH1 0x0 REVERT JUMPDEST PUSH32 0x4E487B7100000000000000000000000000000000000000000000000000000000 PUSH1 0x0 MSTORE PUSH1 0x11 PUSH1 0x4 MSTORE PUSH1 0x24 PUSH1 0x0 REVERT JUMPDEST PUSH1 0x0 PUSH2 0xCAE DUP3 PUSH2 0x60B JUMP JUMPDEST SWAP2 POP PUSH2 0xCB9 DUP4 PUSH2 0x60B JUMP JUMPDEST SWAP3 POP DUP3 DUP3 ADD SWAP1 POP DUP1 DUP3 GT ISZERO PUSH2 0xCD1 JUMPI PUSH2 0xCD0 PUSH2 0xC74 JUMP JUMPDEST JUMPDEST SWAP3 SWAP2 POP POP JUMP JUMPDEST PUSH1 0x0 PUSH2 0xCE2 DUP3 PUSH2 0x60B JUMP JUMPDEST SWAP2 POP PUSH32 0xFFFFFFFFFFFFFFFFFFFFFFFFFFFFFFFFFFFFFFFFFFFFFFFFFFFFFFFFFFFFFFFF DUP3 SUB PUSH2 0xD14 JUMPI PUSH2 0xD13 PUSH2 0xC74 JUMP JUMPDEST JUMPDEST PUSH1 0x1 DUP3 ADD SWAP1 POP SWAP2 SWAP1 POP JUMP INVALID LOG2 PUSH5 0x6970667358 0x22 SLT KECCAK256 SWAP3 0xAF 0x29 0x1F 0xC1 EXTCODECOPY 0xE5 EXP 0x5F SWAP12 SUB LOG1 EXP 0xA7 0xA9 0xE9 0xF PUSH23 0xD71FE02DC17A9F0566BD907A3C9E64736F6C6343000812 STOP CALLER "},"methodIdentifiers":{"donate(string,uint256,string,string)":"496f85f8","donations(uint256)":"f8626af8","getTotalDonations()":"777c658f"}}}}}