{
  "_format": "hh-sol-artifact-1",
  "contractName": "DonationCampaign",
  "sourceName": "contracts/DonationCampaign.sol",
  "abi": [
    {
      "inputs": [],
      "stateMutability": "nonpayable",
      "type": "constructor"
    },
    {
      "anonymous": false,
      "inputs": [
        {
          "indexed": true,
          "internalType": "address",
          "name": "donor",
          "type": "address"
        },
        {
          "indexed": false,
          "internalType": "string",
          "name": "fullName",
          "type": "string"
        },
        {
          "indexed": false,
          "internalType": "uint256",
          "name": "donationAmount",
          "type": "uint256"
        },
        {
          "indexed": false,
          "internalType": "address",
          "name": "organizationAddress",
          "type": "address"
        },
        {
          "indexed": false,
          "internalType": "string",
          "name": "message",
          "type": "string"
        }
      ],
      "name": "DonationReceived",
      "type": "event"
    },
    {
      "inputs": [
        {
          "internalType": "string",
          "name": "_fullName",
          "type": "string"
        },
        {
          "internalType": "uint256",
          "name": "_donationAmount",
          "type": "uint256"
        },
        {
          "internalType": "uint8",
          "name": "_organizationIndex",
          "type": "uint8"
        },
        {
          "internalType": "string",
          "name": "_message",
          "type": "string"
        }
      ],
      "name": "donate",
      "outputs": [],
      "stateMutability": "nonpayable",
      "type": "function"
    },
    {
      "inputs": [
        {
          "internalType": "uint256",
          "name": "",
          "type": "uint256"
        }
      ],
      "name": "donations",
      "outputs": [
        {
          "internalType": "address",
          "name": "donor",
          "type": "address"
        },
        {
          "internalType": "string",
          "name": "fullName",
          "type": "string"
        },
        {
          "internalType": "uint256",
          "name": "donationAmount",
          "type": "uint256"
        },
        {
          "internalType": "address",
          "name": "organizationAddress",
          "type": "address"
        },
        {
          "internalType": "string",
          "name": "message",
          "type": "string"
        }
      ],
      "stateMutability": "view",
      "type": "function"
    },
    {
      "inputs": [],
      "name": "getTotalDonations",
      "outputs": [
        {
          "internalType": "uint256",
          "name": "",
          "type": "uint256"
        }
      ],
      "stateMutability": "view",
      "type": "function"
    },
    {
      "inputs": [],
      "name": "owner",
      "outputs": [
        {
          "internalType": "address",
          "name": "",
          "type": "address"
        }
      ],
      "stateMutability": "view",
      "type": "function"
    },
    {
      "inputs": [],
      "name": "udruga1Address",
      "outputs": [
        {
          "internalType": "address",
          "name": "",
          "type": "address"
        }
      ],
      "stateMutability": "view",
      "type": "function"
    },
    {
      "inputs": [],
      "name": "udruga2Address",
      "outputs": [
        {
          "internalType": "address",
          "name": "",
          "type": "address"
        }
      ],
      "stateMutability": "view",
      "type": "function"
    },
    {
      "inputs": [],
      "name": "udruga3Address",
      "outputs": [
        {
          "internalType": "address",
          "name": "",
          "type": "address"
        }
      ],
      "stateMutability": "view",
      "type": "function"
    },
    {
      "inputs": [],
      "name": "udruga4Address",
      "outputs": [
        {
          "internalType": "address",
          "name": "",
          "type": "address"
        }
      ],
      "stateMutability": "view",
      "type": "function"
    },
    {
      "inputs": [],
      "name": "udruga5Address",
      "outputs": [
        {
          "internalType": "address",
          "name": "",
          "type": "address"
        }
      ],
      "stateMutability": "view",
      "type": "function"
    }
  ],
  "bytecode": "0x6080604052731fc78a4113f50034bd4c179993cbc70dc8ef45fb6000806101000a81548173ffffffffffffffffffffffffffffffffffffffff021916908373ffffffffffffffffffffffffffffffffffffffff1602179055507337f05efd4b303642886a4bb3f16c1816e2b2dc63600160006101000a81548173ffffffffffffffffffffffffffffffffffffffff021916908373ffffffffffffffffffffffffffffffffffffffff16021790555073c6e40510b71806dbf957d154dcf7617a3c584d3e600260006101000a81548173ffffffffffffffffffffffffffffffffffffffff021916908373ffffffffffffffffffffffffffffffffffffffff160217905550731d8565320289e1a257c7f8dc42e94a1bf08b4475600360006101000a81548173ffffffffffffffffffffffffffffffffffffffff021916908373ffffffffffffffffffffffffffffffffffffffff1602179055507324805813ddb39ae1154afe8fae71f1816e6c74cc600460006101000a81548173ffffffffffffffffffffffffffffffffffffffff021916908373ffffffffffffffffffffffffffffffffffffffff1602179055503480156101b857600080fd5b5073f39fd6e51aad88f6f4ce6ab8827279cfffb92266600660006101000a81548173ffffffffffffffffffffffffffffffffffffffff021916908373ffffffffffffffffffffffffffffffffffffffff1602179055506112798061021d6000396000f3fe608060405234801561001057600080fd5b50600436106100935760003560e01c8063777c658f11610066578063777c658f1461011057806387c649b61461012e5780638da5cb5b1461014a578063b5deddb814610168578063f8626af81461018657610093565b8063188c87801461009857806328dc0be3146100b6578063538823b1146100d45780635635558b146100f2575b600080fd5b6100a06101ba565b6040516100ad9190610914565b60405180910390f35b6100be6101e0565b6040516100cb9190610914565b60405180910390f35b6100dc610204565b6040516100e99190610914565b60405180910390f35b6100fa61022a565b6040516101079190610914565b60405180910390f35b610118610250565b6040516101259190610948565b60405180910390f35b61014860048036038101906101439190610b22565b6102b5565b005b6101526106f1565b60405161015f9190610914565b60405180910390f35b610170610717565b60405161017d9190610914565b60405180910390f35b6101a0600480360381019061019b9190610bc1565b61073d565b6040516101b1959493929190610c6d565b60405180910390f35b600160009054906101000a900473ffffffffffffffffffffffffffffffffffffffff1681565b60008054906101000a900473ffffffffffffffffffffffffffffffffffffffff1681565b600260009054906101000a900473ffffffffffffffffffffffffffffffffffffffff1681565b600360009054906101000a900473ffffffffffffffffffffffffffffffffffffffff1681565b6000806000905060005b6005805490508110156102ad576005818154811061027b5761027a610cce565b5b906000526020600020906005020160020154826102989190610d2c565b915080806102a590610d60565b91505061025a565b508091505090565b600083116102f8576040517f08c379a00000000000000000000000000000000000000000000000000000000081526004016102ef90610e1a565b60405180910390fd5b60018260ff1610158015610310575060058260ff1611155b61034f576040517f08c379a000000000000000000000000000000000000000000000000000000000815260040161034690610e86565b60405180910390fd5b600060018360ff16036103845760008054906101000a900473ffffffffffffffffffffffffffffffffffffffff169050610458565b60028360ff16036103b957600160009054906101000a900473ffffffffffffffffffffffffffffffffffffffff169050610457565b60038360ff16036103ee57600260009054906101000a900473ffffffffffffffffffffffffffffffffffffffff169050610456565b60048360ff160361042357600360009054906101000a900473ffffffffffffffffffffffffffffffffffffffff169050610455565b60058360ff160361045457600460009054906101000a900473ffffffffffffffffffffffffffffffffffffffff1690505b5b5b5b5b600073ffffffffffffffffffffffffffffffffffffffff168173ffffffffffffffffffffffffffffffffffffffff16036104c7576040517f08c379a00000000000000000000000000000000000000000000000000000000081526004016104be90610ef2565b60405180910390fd5b8073ffffffffffffffffffffffffffffffffffffffff166108fc859081150290604051600060405180830381858888f1935050505015801561050d573d6000803e3d6000fd5b5060056040518060a00160405280600660009054906101000a900473ffffffffffffffffffffffffffffffffffffffff1673ffffffffffffffffffffffffffffffffffffffff1681526020018781526020018681526020018373ffffffffffffffffffffffffffffffffffffffff16815260200184815250908060018154018082558091505060019003906000526020600020906005020160009091909190915060008201518160000160006101000a81548173ffffffffffffffffffffffffffffffffffffffff021916908373ffffffffffffffffffffffffffffffffffffffff160217905550602082015181600101908161060a919061111e565b506040820151816002015560608201518160030160006101000a81548173ffffffffffffffffffffffffffffffffffffffff021916908373ffffffffffffffffffffffffffffffffffffffff1602179055506080820151816004019081610671919061111e565b505050600660009054906101000a900473ffffffffffffffffffffffffffffffffffffffff1673ffffffffffffffffffffffffffffffffffffffff167fd562cf7bf8adb90ef34b015f4a451778e4fe6573bf925866896a2b5a2a1e9eb7868684866040516106e294939291906111f0565b60405180910390a25050505050565b600660009054906101000a900473ffffffffffffffffffffffffffffffffffffffff1681565b600460009054906101000a900473ffffffffffffffffffffffffffffffffffffffff1681565b6005818154811061074d57600080fd5b90600052602060002090600502016000915090508060000160009054906101000a900473ffffffffffffffffffffffffffffffffffffffff169080600101805461079690610f41565b80601f01602080910402602001604051908101604052809291908181526020018280546107c290610f41565b801561080f5780601f106107e45761010080835404028352916020019161080f565b820191906000526020600020905b8154815290600101906020018083116107f257829003601f168201915b5050505050908060020154908060030160009054906101000a900473ffffffffffffffffffffffffffffffffffffffff169080600401805461085090610f41565b80601f016020809104026020016040519081016040528092919081815260200182805461087c90610f41565b80156108c95780601f1061089e576101008083540402835291602001916108c9565b820191906000526020600020905b8154815290600101906020018083116108ac57829003601f168201915b5050505050905085565b600073ffffffffffffffffffffffffffffffffffffffff82169050919050565b60006108fe826108d3565b9050919050565b61090e816108f3565b82525050565b60006020820190506109296000830184610905565b92915050565b6000819050919050565b6109428161092f565b82525050565b600060208201905061095d6000830184610939565b92915050565b6000604051905090565b600080fd5b600080fd5b600080fd5b600080fd5b6000601f19601f8301169050919050565b7f4e487b7100000000000000000000000000000000000000000000000000000000600052604160045260246000fd5b6109ca82610981565b810181811067ffffffffffffffff821117156109e9576109e8610992565b5b80604052505050565b60006109fc610963565b9050610a0882826109c1565b919050565b600067ffffffffffffffff821115610a2857610a27610992565b5b610a3182610981565b9050602081019050919050565b82818337600083830152505050565b6000610a60610a5b84610a0d565b6109f2565b905082815260208101848484011115610a7c57610a7b61097c565b5b610a87848285610a3e565b509392505050565b600082601f830112610aa457610aa3610977565b5b8135610ab4848260208601610a4d565b91505092915050565b610ac68161092f565b8114610ad157600080fd5b50565b600081359050610ae381610abd565b92915050565b600060ff82169050919050565b610aff81610ae9565b8114610b0a57600080fd5b50565b600081359050610b1c81610af6565b92915050565b60008060008060808587031215610b3c57610b3b61096d565b5b600085013567ffffffffffffffff811115610b5a57610b59610972565b5b610b6687828801610a8f565b9450506020610b7787828801610ad4565b9350506040610b8887828801610b0d565b925050606085013567ffffffffffffffff811115610ba957610ba8610972565b5b610bb587828801610a8f565b91505092959194509250565b600060208284031215610bd757610bd661096d565b5b6000610be584828501610ad4565b91505092915050565b600081519050919050565b600082825260208201905092915050565b60005b83811015610c28578082015181840152602081019050610c0d565b60008484015250505050565b6000610c3f82610bee565b610c498185610bf9565b9350610c59818560208601610c0a565b610c6281610981565b840191505092915050565b600060a082019050610c826000830188610905565b8181036020830152610c948187610c34565b9050610ca36040830186610939565b610cb06060830185610905565b8181036080830152610cc28184610c34565b90509695505050505050565b7f4e487b7100000000000000000000000000000000000000000000000000000000600052603260045260246000fd5b7f4e487b7100000000000000000000000000000000000000000000000000000000600052601160045260246000fd5b6000610d378261092f565b9150610d428361092f565b9250828201905080821115610d5a57610d59610cfd565b5b92915050565b6000610d6b8261092f565b91507fffffffffffffffffffffffffffffffffffffffffffffffffffffffffffffffff8203610d9d57610d9c610cfd565b5b600182019050919050565b7f446f6e6174696f6e20616d6f756e74206d75737420626520677265617465722060008201527f7468616e20300000000000000000000000000000000000000000000000000000602082015250565b6000610e04602683610bf9565b9150610e0f82610da8565b604082019050919050565b60006020820190508181036000830152610e3381610df7565b9050919050565b7f496e76616c6964206f7267616e697a6174696f6e20696e646578000000000000600082015250565b6000610e70601a83610bf9565b9150610e7b82610e3a565b602082019050919050565b60006020820190508181036000830152610e9f81610e63565b9050919050565b7f4f7267616e697a6174696f6e2061646472657373206e6f742073657400000000600082015250565b6000610edc601c83610bf9565b9150610ee782610ea6565b602082019050919050565b60006020820190508181036000830152610f0b81610ecf565b9050919050565b7f4e487b7100000000000000000000000000000000000000000000000000000000600052602260045260246000fd5b60006002820490506001821680610f5957607f821691505b602082108103610f6c57610f6b610f12565b5b50919050565b60008190508160005260206000209050919050565b60006020601f8301049050919050565b600082821b905092915050565b600060088302610fd47fffffffffffffffffffffffffffffffffffffffffffffffffffffffffffffffff82610f97565b610fde8683610f97565b95508019841693508086168417925050509392505050565b6000819050919050565b600061101b6110166110118461092f565b610ff6565b61092f565b9050919050565b6000819050919050565b61103583611000565b61104961104182611022565b848454610fa4565b825550505050565b600090565b61105e611051565b61106981848461102c565b505050565b5b8181101561108d57611082600082611056565b60018101905061106f565b5050565b601f8211156110d2576110a381610f72565b6110ac84610f87565b810160208510156110bb578190505b6110cf6110c785610f87565b83018261106e565b50505b505050565b600082821c905092915050565b60006110f5600019846008026110d7565b1980831691505092915050565b600061110e83836110e4565b9150826002028217905092915050565b61112782610bee565b67ffffffffffffffff8111156111405761113f610992565b5b61114a8254610f41565b611155828285611091565b600060209050601f8311600181146111885760008415611176578287015190505b6111808582611102565b8655506111e8565b601f19841661119686610f72565b60005b828110156111be57848901518255600182019150602085019450602081019050611199565b868310156111db57848901516111d7601f8916826110e4565b8355505b6001600288020188555050505b505050505050565b6000608082019050818103600083015261120a8187610c34565b90506112196020830186610939565b6112266040830185610905565b81810360608301526112388184610c34565b90509594505050505056fea264697066735822122054ab0250dbe4ca36c565357b1aa70b844480ee54d7638828ec351759499fb5e664736f6c63430008120033",
  "linkReferences": {},
  "deployedLinkReferences": {}
}