{
  "_format": "hh-sol-artifact-1",
  "contractName": "DonationCampaign",
  "sourceName": "contracts/DonationCampaign.sol",
  "abi": [
    {
      "inputs": [],
      "stateMutability": "nonpayable",
      "type": "constructor"
    },
    {
      "anonymous": false,
      "inputs": [
        {
          "indexed": true,
          "internalType": "address",
          "name": "donor",
          "type": "address"
        },
        {
          "indexed": false,
          "internalType": "string",
          "name": "fullName",
          "type": "string"
        },
        {
          "indexed": false,
          "internalType": "uint256",
          "name": "donationAmount",
          "type": "uint256"
        },
        {
          "indexed": false,
          "internalType": "address",
          "name": "organizationAddress",
          "type": "address"
        },
        {
          "indexed": false,
          "internalType": "string",
          "name": "message",
          "type": "string"
        }
      ],
      "name": "DonationReceived",
      "type": "event"
    },
    {
      "inputs": [
        {
          "internalType": "string",
          "name": "_fullName",
          "type": "string"
        },
        {
          "internalType": "uint8",
          "name": "_organizationIndex",
          "type": "uint8"
        },
        {
          "internalType": "string",
          "name": "_message",
          "type": "string"
        }
      ],
      "name": "donate",
      "outputs": [],
      "stateMutability": "payable",
      "type": "function"
    },
    {
      "inputs": [
        {
          "internalType": "uint256",
          "name": "",
          "type": "uint256"
        }
      ],
      "name": "donations",
      "outputs": [
        {
          "internalType": "address",
          "name": "donor",
          "type": "address"
        },
        {
          "internalType": "string",
          "name": "fullName",
          "type": "string"
        },
        {
          "internalType": "uint256",
          "name": "donationAmount",
          "type": "uint256"
        },
        {
          "internalType": "address",
          "name": "organizationAddress",
          "type": "address"
        },
        {
          "internalType": "string",
          "name": "message",
          "type": "string"
        }
      ],
      "stateMutability": "view",
      "type": "function"
    },
    {
      "inputs": [],
      "name": "getTotalDonations",
      "outputs": [
        {
          "internalType": "uint256",
          "name": "",
          "type": "uint256"
        }
      ],
      "stateMutability": "view",
      "type": "function"
    },
    {
      "inputs": [],
      "name": "owner",
      "outputs": [
        {
          "internalType": "address",
          "name": "",
          "type": "address"
        }
      ],
      "stateMutability": "view",
      "type": "function"
    },
    {
      "inputs": [
        {
          "internalType": "uint8",
          "name": "_organizationIndex",
          "type": "uint8"
        }
      ],
      "name": "sendEthToOrganization",
      "outputs": [],
      "stateMutability": "payable",
      "type": "function"
    },
    {
      "inputs": [],
      "name": "udruga1Address",
      "outputs": [
        {
          "internalType": "address",
          "name": "",
          "type": "address"
        }
      ],
      "stateMutability": "view",
      "type": "function"
    },
    {
      "inputs": [],
      "name": "udruga2Address",
      "outputs": [
        {
          "internalType": "address",
          "name": "",
          "type": "address"
        }
      ],
      "stateMutability": "view",
      "type": "function"
    },
    {
      "inputs": [],
      "name": "udruga3Address",
      "outputs": [
        {
          "internalType": "address",
          "name": "",
          "type": "address"
        }
      ],
      "stateMutability": "view",
      "type": "function"
    },
    {
      "inputs": [],
      "name": "udruga4Address",
      "outputs": [
        {
          "internalType": "address",
          "name": "",
          "type": "address"
        }
      ],
      "stateMutability": "view",
      "type": "function"
    },
    {
      "inputs": [],
      "name": "udruga5Address",
      "outputs": [
        {
          "internalType": "address",
          "name": "",
          "type": "address"
        }
      ],
      "stateMutability": "view",
      "type": "function"
    }
  ],
  "bytecode": "0x6080604052731fc78a4113f50034bd4c179993cbc70dc8ef45fb6000806101000a81548173ffffffffffffffffffffffffffffffffffffffff021916908373ffffffffffffffffffffffffffffffffffffffff1602179055507337f05efd4b303642886a4bb3f16c1816e2b2dc63600160006101000a81548173ffffffffffffffffffffffffffffffffffffffff021916908373ffffffffffffffffffffffffffffffffffffffff16021790555073c6e40510b71806dbf957d154dcf7617a3c584d3e600260006101000a81548173ffffffffffffffffffffffffffffffffffffffff021916908373ffffffffffffffffffffffffffffffffffffffff160217905550731d8565320289e1a257c7f8dc42e94a1bf08b4475600360006101000a81548173ffffffffffffffffffffffffffffffffffffffff021916908373ffffffffffffffffffffffffffffffffffffffff1602179055507324805813ddb39ae1154afe8fae71f1816e6c74cc600460006101000a81548173ffffffffffffffffffffffffffffffffffffffff021916908373ffffffffffffffffffffffffffffffffffffffff1602179055503480156101b857600080fd5b5073f39fd6e51aad88f6f4ce6ab8827279cfffb92266600660006101000a81548173ffffffffffffffffffffffffffffffffffffffff021916908373ffffffffffffffffffffffffffffffffffffffff1602179055506115ed8061021d6000396000f3fe6080604052600436106100915760003560e01c80638da5cb5b116100595780638da5cb5b1461016d578063b5deddb814610198578063c299c9c0146101c3578063f8626af8146101df578063fa952c531461022057610091565b8063188c87801461009657806328dc0be3146100c1578063538823b1146100ec5780635635558b14610117578063777c658f14610142575b600080fd5b3480156100a257600080fd5b506100ab61023c565b6040516100b89190610bae565b60405180910390f35b3480156100cd57600080fd5b506100d6610262565b6040516100e39190610bae565b60405180910390f35b3480156100f857600080fd5b50610101610286565b60405161010e9190610bae565b60405180910390f35b34801561012357600080fd5b5061012c6102ac565b6040516101399190610bae565b60405180910390f35b34801561014e57600080fd5b506101576102d2565b6040516101649190610be2565b60405180910390f35b34801561017957600080fd5b50610182610337565b60405161018f9190610bae565b60405180910390f35b3480156101a457600080fd5b506101ad61035d565b6040516101ba9190610bae565b60405180910390f35b6101dd60048036038101906101d89190610d90565b610383565b005b3480156101eb57600080fd5b5061020660048036038101906102019190610e47565b61077a565b604051610217959493929190610ef3565b60405180910390f35b61023a60048036038101906102359190610f54565b610910565b005b600160009054906101000a900473ffffffffffffffffffffffffffffffffffffffff1681565b60008054906101000a900473ffffffffffffffffffffffffffffffffffffffff1681565b600260009054906101000a900473ffffffffffffffffffffffffffffffffffffffff1681565b600360009054906101000a900473ffffffffffffffffffffffffffffffffffffffff1681565b6000806000905060005b60058054905081101561032f57600581815481106102fd576102fc610f81565b5b9060005260206000209060050201600201548261031a9190610fdf565b9150808061032790611013565b9150506102dc565b508091505090565b600660009054906101000a900473ffffffffffffffffffffffffffffffffffffffff1681565b600460009054906101000a900473ffffffffffffffffffffffffffffffffffffffff1681565b600034116103c6576040517f08c379a00000000000000000000000000000000000000000000000000000000081526004016103bd906110cd565b60405180910390fd5b60018260ff16101580156103de575060058260ff1611155b61041d576040517f08c379a000000000000000000000000000000000000000000000000000000000815260040161041490611139565b60405180910390fd5b600060018360ff16036104525760008054906101000a900473ffffffffffffffffffffffffffffffffffffffff169050610526565b60028360ff160361048757600160009054906101000a900473ffffffffffffffffffffffffffffffffffffffff169050610525565b60038360ff16036104bc57600260009054906101000a900473ffffffffffffffffffffffffffffffffffffffff169050610524565b60048360ff16036104f157600360009054906101000a900473ffffffffffffffffffffffffffffffffffffffff169050610523565b60058360ff160361052257600460009054906101000a900473ffffffffffffffffffffffffffffffffffffffff1690505b5b5b5b5b600073ffffffffffffffffffffffffffffffffffffffff168173ffffffffffffffffffffffffffffffffffffffff1603610595576040517f08c379a000000000000000000000000000000000000000000000000000000000815260040161058c906111a5565b60405180910390fd5b8073ffffffffffffffffffffffffffffffffffffffff166108fc349081150290604051600060405180830381858888f193505050501580156105db573d6000803e3d6000fd5b5060056040518060a001604052803373ffffffffffffffffffffffffffffffffffffffff1681526020018681526020013481526020018373ffffffffffffffffffffffffffffffffffffffff16815260200184815250908060018154018082558091505060019003906000526020600020906005020160009091909190915060008201518160000160006101000a81548173ffffffffffffffffffffffffffffffffffffffff021916908373ffffffffffffffffffffffffffffffffffffffff16021790555060208201518160010190816106b691906113d1565b506040820151816002015560608201518160030160006101000a81548173ffffffffffffffffffffffffffffffffffffffff021916908373ffffffffffffffffffffffffffffffffffffffff160217905550608082015181600401908161071d91906113d1565b5050503373ffffffffffffffffffffffffffffffffffffffff167fd562cf7bf8adb90ef34b015f4a451778e4fe6573bf925866896a2b5a2a1e9eb78534848660405161076c94939291906114f8565b60405180910390a250505050565b6005818154811061078a57600080fd5b90600052602060002090600502016000915090508060000160009054906101000a900473ffffffffffffffffffffffffffffffffffffffff16908060010180546107d3906111f4565b80601f01602080910402602001604051908101604052809291908181526020018280546107ff906111f4565b801561084c5780601f106108215761010080835404028352916020019161084c565b820191906000526020600020905b81548152906001019060200180831161082f57829003601f168201915b5050505050908060020154908060030160009054906101000a900473ffffffffffffffffffffffffffffffffffffffff169080600401805461088d906111f4565b80601f01602080910402602001604051908101604052809291908181526020018280546108b9906111f4565b80156109065780601f106108db57610100808354040283529160200191610906565b820191906000526020600020905b8154815290600101906020018083116108e957829003601f168201915b5050505050905085565b60003411610953576040517f08c379a000000000000000000000000000000000000000000000000000000000815260040161094a90611597565b60405180910390fd5b60018160ff161015801561096b575060058160ff1611155b6109aa576040517f08c379a00000000000000000000000000000000000000000000000000000000081526004016109a190611139565b60405180910390fd5b600060018260ff16036109df5760008054906101000a900473ffffffffffffffffffffffffffffffffffffffff169050610ab3565b60028260ff1603610a1457600160009054906101000a900473ffffffffffffffffffffffffffffffffffffffff169050610ab2565b60038260ff1603610a4957600260009054906101000a900473ffffffffffffffffffffffffffffffffffffffff169050610ab1565b60048260ff1603610a7e57600360009054906101000a900473ffffffffffffffffffffffffffffffffffffffff169050610ab0565b60058260ff1603610aaf57600460009054906101000a900473ffffffffffffffffffffffffffffffffffffffff1690505b5b5b5b5b600073ffffffffffffffffffffffffffffffffffffffff168173ffffffffffffffffffffffffffffffffffffffff1603610b22576040517f08c379a0000000000000000000000000000000000000000000000000000000008152600401610b19906111a5565b60405180910390fd5b8073ffffffffffffffffffffffffffffffffffffffff166108fc349081150290604051600060405180830381858888f19350505050158015610b68573d6000803e3d6000fd5b505050565b600073ffffffffffffffffffffffffffffffffffffffff82169050919050565b6000610b9882610b6d565b9050919050565b610ba881610b8d565b82525050565b6000602082019050610bc36000830184610b9f565b92915050565b6000819050919050565b610bdc81610bc9565b82525050565b6000602082019050610bf76000830184610bd3565b92915050565b6000604051905090565b600080fd5b600080fd5b600080fd5b600080fd5b6000601f19601f8301169050919050565b7f4e487b7100000000000000000000000000000000000000000000000000000000600052604160045260246000fd5b610c6482610c1b565b810181811067ffffffffffffffff82111715610c8357610c82610c2c565b5b80604052505050565b6000610c96610bfd565b9050610ca28282610c5b565b919050565b600067ffffffffffffffff821115610cc257610cc1610c2c565b5b610ccb82610c1b565b9050602081019050919050565b82818337600083830152505050565b6000610cfa610cf584610ca7565b610c8c565b905082815260208101848484011115610d1657610d15610c16565b5b610d21848285610cd8565b509392505050565b600082601f830112610d3e57610d3d610c11565b5b8135610d4e848260208601610ce7565b91505092915050565b600060ff82169050919050565b610d6d81610d57565b8114610d7857600080fd5b50565b600081359050610d8a81610d64565b92915050565b600080600060608486031215610da957610da8610c07565b5b600084013567ffffffffffffffff811115610dc757610dc6610c0c565b5b610dd386828701610d29565b9350506020610de486828701610d7b565b925050604084013567ffffffffffffffff811115610e0557610e04610c0c565b5b610e1186828701610d29565b9150509250925092565b610e2481610bc9565b8114610e2f57600080fd5b50565b600081359050610e4181610e1b565b92915050565b600060208284031215610e5d57610e5c610c07565b5b6000610e6b84828501610e32565b91505092915050565b600081519050919050565b600082825260208201905092915050565b60005b83811015610eae578082015181840152602081019050610e93565b60008484015250505050565b6000610ec582610e74565b610ecf8185610e7f565b9350610edf818560208601610e90565b610ee881610c1b565b840191505092915050565b600060a082019050610f086000830188610b9f565b8181036020830152610f1a8187610eba565b9050610f296040830186610bd3565b610f366060830185610b9f565b8181036080830152610f488184610eba565b90509695505050505050565b600060208284031215610f6a57610f69610c07565b5b6000610f7884828501610d7b565b91505092915050565b7f4e487b7100000000000000000000000000000000000000000000000000000000600052603260045260246000fd5b7f4e487b7100000000000000000000000000000000000000000000000000000000600052601160045260246000fd5b6000610fea82610bc9565b9150610ff583610bc9565b925082820190508082111561100d5761100c610fb0565b5b92915050565b600061101e82610bc9565b91507fffffffffffffffffffffffffffffffffffffffffffffffffffffffffffffffff82036110505761104f610fb0565b5b600182019050919050565b7f446f6e6174696f6e20616d6f756e74206d75737420626520677265617465722060008201527f7468616e20300000000000000000000000000000000000000000000000000000602082015250565b60006110b7602683610e7f565b91506110c28261105b565b604082019050919050565b600060208201905081810360008301526110e6816110aa565b9050919050565b7f496e76616c6964206f7267616e697a6174696f6e20696e646578000000000000600082015250565b6000611123601a83610e7f565b915061112e826110ed565b602082019050919050565b6000602082019050818103600083015261115281611116565b9050919050565b7f4f7267616e697a6174696f6e2061646472657373206e6f742073657400000000600082015250565b600061118f601c83610e7f565b915061119a82611159565b602082019050919050565b600060208201905081810360008301526111be81611182565b9050919050565b7f4e487b7100000000000000000000000000000000000000000000000000000000600052602260045260246000fd5b6000600282049050600182168061120c57607f821691505b60208210810361121f5761121e6111c5565b5b50919050565b60008190508160005260206000209050919050565b60006020601f8301049050919050565b600082821b905092915050565b6000600883026112877fffffffffffffffffffffffffffffffffffffffffffffffffffffffffffffffff8261124a565b611291868361124a565b95508019841693508086168417925050509392505050565b6000819050919050565b60006112ce6112c96112c484610bc9565b6112a9565b610bc9565b9050919050565b6000819050919050565b6112e8836112b3565b6112fc6112f4826112d5565b848454611257565b825550505050565b600090565b611311611304565b61131c8184846112df565b505050565b5b8181101561134057611335600082611309565b600181019050611322565b5050565b601f8211156113855761135681611225565b61135f8461123a565b8101602085101561136e578190505b61138261137a8561123a565b830182611321565b50505b505050565b600082821c905092915050565b60006113a86000198460080261138a565b1980831691505092915050565b60006113c18383611397565b9150826002028217905092915050565b6113da82610e74565b67ffffffffffffffff8111156113f3576113f2610c2c565b5b6113fd82546111f4565b611408828285611344565b600060209050601f83116001811461143b5760008415611429578287015190505b61143385826113b5565b86555061149b565b601f19841661144986611225565b60005b828110156114715784890151825560018201915060208501945060208101905061144c565b8683101561148e578489015161148a601f891682611397565b8355505b6001600288020188555050505b505050505050565b60006114be6114b96114b484610b6d565b6112a9565b610b6d565b9050919050565b60006114d0826114a3565b9050919050565b60006114e2826114c5565b9050919050565b6114f2816114d7565b82525050565b600060808201905081810360008301526115128187610eba565b90506115216020830186610bd3565b61152e60408301856114e9565b81810360608301526115408184610eba565b905095945050505050565b7f416d6f756e74206d7573742062652067726561746572207468616e2030000000600082015250565b6000611581601d83610e7f565b915061158c8261154b565b602082019050919050565b600060208201905081810360008301526115b081611574565b905091905056fea26469706673582212206d12b9f53192dc513abed2bb7121743cece7b550e1ea23f8f9e16c26e3fbf9ae64736f6c63430008120033",
  "linkReferences": {},
  "deployedLinkReferences": {}
}