{
  "_format": "hh-sol-artifact-1",
  "contractName": "DonationCampaign",
  "sourceName": "contracts/DonationCampaign.sol",
  "abi": [
    {
      "anonymous": false,
      "inputs": [
        {
          "indexed": true,
          "internalType": "address",
          "name": "donor",
          "type": "address"
        },
        {
          "indexed": false,
          "internalType": "string",
          "name": "fullName",
          "type": "string"
        },
        {
          "indexed": false,
          "internalType": "uint256",
          "name": "donationAmount",
          "type": "uint256"
        },
        {
          "indexed": false,
          "internalType": "address",
          "name": "organizationAddress",
          "type": "address"
        },
        {
          "indexed": false,
          "internalType": "string",
          "name": "message",
          "type": "string"
        }
      ],
      "name": "DonationReceived",
      "type": "event"
    },
    {
      "inputs": [
        {
          "internalType": "string",
          "name": "_fullName",
          "type": "string"
        },
        {
          "internalType": "uint256",
          "name": "_donationAmount",
          "type": "uint256"
        },
        {
          "internalType": "uint8",
          "name": "_organizationIndex",
          "type": "uint8"
        },
        {
          "internalType": "string",
          "name": "_message",
          "type": "string"
        }
      ],
      "name": "donate",
      "outputs": [],
      "stateMutability": "nonpayable",
      "type": "function"
    },
    {
      "inputs": [
        {
          "internalType": "uint256",
          "name": "",
          "type": "uint256"
        }
      ],
      "name": "donations",
      "outputs": [
        {
          "internalType": "address",
          "name": "donor",
          "type": "address"
        },
        {
          "internalType": "string",
          "name": "fullName",
          "type": "string"
        },
        {
          "internalType": "uint256",
          "name": "donationAmount",
          "type": "uint256"
        },
        {
          "internalType": "address",
          "name": "organizationAddress",
          "type": "address"
        },
        {
          "internalType": "string",
          "name": "message",
          "type": "string"
        }
      ],
      "stateMutability": "view",
      "type": "function"
    },
    {
      "inputs": [],
      "name": "getTotalDonations",
      "outputs": [
        {
          "internalType": "uint256",
          "name": "",
          "type": "uint256"
        }
      ],
      "stateMutability": "view",
      "type": "function"
    },
    {
      "inputs": [],
      "name": "udruga1Address",
      "outputs": [
        {
          "internalType": "address",
          "name": "",
          "type": "address"
        }
      ],
      "stateMutability": "view",
      "type": "function"
    },
    {
      "inputs": [],
      "name": "udruga2Address",
      "outputs": [
        {
          "internalType": "address",
          "name": "",
          "type": "address"
        }
      ],
      "stateMutability": "view",
      "type": "function"
    },
    {
      "inputs": [],
      "name": "udruga3Address",
      "outputs": [
        {
          "internalType": "address",
          "name": "",
          "type": "address"
        }
      ],
      "stateMutability": "view",
      "type": "function"
    },
    {
      "inputs": [],
      "name": "udruga4Address",
      "outputs": [
        {
          "internalType": "address",
          "name": "",
          "type": "address"
        }
      ],
      "stateMutability": "view",
      "type": "function"
    },
    {
      "inputs": [],
      "name": "udruga5Address",
      "outputs": [
        {
          "internalType": "address",
          "name": "",
          "type": "address"
        }
      ],
      "stateMutability": "view",
      "type": "function"
    }
  ],
  "bytecode": "0x6080604052731fc78a4113f50034bd4c179993cbc70dc8ef45fb6000806101000a81548173ffffffffffffffffffffffffffffffffffffffff021916908373ffffffffffffffffffffffffffffffffffffffff1602179055507337f05efd4b303642886a4bb3f16c1816e2b2dc63600160006101000a81548173ffffffffffffffffffffffffffffffffffffffff021916908373ffffffffffffffffffffffffffffffffffffffff16021790555073c6e40510b71806dbf957d154dcf7617a3c584d3e600260006101000a81548173ffffffffffffffffffffffffffffffffffffffff021916908373ffffffffffffffffffffffffffffffffffffffff160217905550731d8565320289e1a257c7f8dc42e94a1bf08b4475600360006101000a81548173ffffffffffffffffffffffffffffffffffffffff021916908373ffffffffffffffffffffffffffffffffffffffff1602179055507324805813ddb39ae1154afe8fae71f1816e6c74cc600460006101000a81548173ffffffffffffffffffffffffffffffffffffffff021916908373ffffffffffffffffffffffffffffffffffffffff1602179055503480156101b857600080fd5b506111e6806101c86000396000f3fe608060405234801561001057600080fd5b50600436106100885760003560e01c8063777c658f1161005b578063777c658f1461010557806387c649b614610123578063b5deddb81461013f578063f8626af81461015d57610088565b8063188c87801461008d57806328dc0be3146100ab578063538823b1146100c95780635635558b146100e7575b600080fd5b610095610191565b6040516100a29190610881565b60405180910390f35b6100b36101b7565b6040516100c09190610881565b60405180910390f35b6100d16101db565b6040516100de9190610881565b60405180910390f35b6100ef610201565b6040516100fc9190610881565b60405180910390f35b61010d610227565b60405161011a91906108b5565b60405180910390f35b61013d60048036038101906101389190610a8f565b61028c565b005b610147610684565b6040516101549190610881565b60405180910390f35b61017760048036038101906101729190610b2e565b6106aa565b604051610188959493929190610bda565b60405180910390f35b600160009054906101000a900473ffffffffffffffffffffffffffffffffffffffff1681565b60008054906101000a900473ffffffffffffffffffffffffffffffffffffffff1681565b600260009054906101000a900473ffffffffffffffffffffffffffffffffffffffff1681565b600360009054906101000a900473ffffffffffffffffffffffffffffffffffffffff1681565b6000806000905060005b600580549050811015610284576005818154811061025257610251610c3b565b5b9060005260206000209060050201600201548261026f9190610c99565b9150808061027c90610ccd565b915050610231565b508091505090565b600083116102cf576040517f08c379a00000000000000000000000000000000000000000000000000000000081526004016102c690610d87565b60405180910390fd5b60018260ff16101580156102e7575060058260ff1611155b610326576040517f08c379a000000000000000000000000000000000000000000000000000000000815260040161031d90610df3565b60405180910390fd5b600060018360ff160361035b5760008054906101000a900473ffffffffffffffffffffffffffffffffffffffff16905061042f565b60028360ff160361039057600160009054906101000a900473ffffffffffffffffffffffffffffffffffffffff16905061042e565b60038360ff16036103c557600260009054906101000a900473ffffffffffffffffffffffffffffffffffffffff16905061042d565b60048360ff16036103fa57600360009054906101000a900473ffffffffffffffffffffffffffffffffffffffff16905061042c565b60058360ff160361042b57600460009054906101000a900473ffffffffffffffffffffffffffffffffffffffff1690505b5b5b5b5b600073ffffffffffffffffffffffffffffffffffffffff168173ffffffffffffffffffffffffffffffffffffffff160361049e576040517f08c379a000000000000000000000000000000000000000000000000000000000815260040161049590610e5f565b60405180910390fd5b8073ffffffffffffffffffffffffffffffffffffffff166108fc859081150290604051600060405180830381858888f193505050501580156104e4573d6000803e3d6000fd5b5060056040518060a001604052803373ffffffffffffffffffffffffffffffffffffffff1681526020018781526020018681526020018373ffffffffffffffffffffffffffffffffffffffff16815260200184815250908060018154018082558091505060019003906000526020600020906005020160009091909190915060008201518160000160006101000a81548173ffffffffffffffffffffffffffffffffffffffff021916908373ffffffffffffffffffffffffffffffffffffffff16021790555060208201518160010190816105bf919061108b565b506040820151816002015560608201518160030160006101000a81548173ffffffffffffffffffffffffffffffffffffffff021916908373ffffffffffffffffffffffffffffffffffffffff1602179055506080820151816004019081610626919061108b565b5050503373ffffffffffffffffffffffffffffffffffffffff167fd562cf7bf8adb90ef34b015f4a451778e4fe6573bf925866896a2b5a2a1e9eb786868486604051610675949392919061115d565b60405180910390a25050505050565b600460009054906101000a900473ffffffffffffffffffffffffffffffffffffffff1681565b600581815481106106ba57600080fd5b90600052602060002090600502016000915090508060000160009054906101000a900473ffffffffffffffffffffffffffffffffffffffff169080600101805461070390610eae565b80601f016020809104026020016040519081016040528092919081815260200182805461072f90610eae565b801561077c5780601f106107515761010080835404028352916020019161077c565b820191906000526020600020905b81548152906001019060200180831161075f57829003601f168201915b5050505050908060020154908060030160009054906101000a900473ffffffffffffffffffffffffffffffffffffffff16908060040180546107bd90610eae565b80601f01602080910402602001604051908101604052809291908181526020018280546107e990610eae565b80156108365780601f1061080b57610100808354040283529160200191610836565b820191906000526020600020905b81548152906001019060200180831161081957829003601f168201915b5050505050905085565b600073ffffffffffffffffffffffffffffffffffffffff82169050919050565b600061086b82610840565b9050919050565b61087b81610860565b82525050565b60006020820190506108966000830184610872565b92915050565b6000819050919050565b6108af8161089c565b82525050565b60006020820190506108ca60008301846108a6565b92915050565b6000604051905090565b600080fd5b600080fd5b600080fd5b600080fd5b6000601f19601f8301169050919050565b7f4e487b7100000000000000000000000000000000000000000000000000000000600052604160045260246000fd5b610937826108ee565b810181811067ffffffffffffffff82111715610956576109556108ff565b5b80604052505050565b60006109696108d0565b9050610975828261092e565b919050565b600067ffffffffffffffff821115610995576109946108ff565b5b61099e826108ee565b9050602081019050919050565b82818337600083830152505050565b60006109cd6109c88461097a565b61095f565b9050828152602081018484840111156109e9576109e86108e9565b5b6109f48482856109ab565b509392505050565b600082601f830112610a1157610a106108e4565b5b8135610a218482602086016109ba565b91505092915050565b610a338161089c565b8114610a3e57600080fd5b50565b600081359050610a5081610a2a565b92915050565b600060ff82169050919050565b610a6c81610a56565b8114610a7757600080fd5b50565b600081359050610a8981610a63565b92915050565b60008060008060808587031215610aa957610aa86108da565b5b600085013567ffffffffffffffff811115610ac757610ac66108df565b5b610ad3878288016109fc565b9450506020610ae487828801610a41565b9350506040610af587828801610a7a565b925050606085013567ffffffffffffffff811115610b1657610b156108df565b5b610b22878288016109fc565b91505092959194509250565b600060208284031215610b4457610b436108da565b5b6000610b5284828501610a41565b91505092915050565b600081519050919050565b600082825260208201905092915050565b60005b83811015610b95578082015181840152602081019050610b7a565b60008484015250505050565b6000610bac82610b5b565b610bb68185610b66565b9350610bc6818560208601610b77565b610bcf816108ee565b840191505092915050565b600060a082019050610bef6000830188610872565b8181036020830152610c018187610ba1565b9050610c1060408301866108a6565b610c1d6060830185610872565b8181036080830152610c2f8184610ba1565b90509695505050505050565b7f4e487b7100000000000000000000000000000000000000000000000000000000600052603260045260246000fd5b7f4e487b7100000000000000000000000000000000000000000000000000000000600052601160045260246000fd5b6000610ca48261089c565b9150610caf8361089c565b9250828201905080821115610cc757610cc6610c6a565b5b92915050565b6000610cd88261089c565b91507fffffffffffffffffffffffffffffffffffffffffffffffffffffffffffffffff8203610d0a57610d09610c6a565b5b600182019050919050565b7f446f6e6174696f6e20616d6f756e74206d75737420626520677265617465722060008201527f7468616e20300000000000000000000000000000000000000000000000000000602082015250565b6000610d71602683610b66565b9150610d7c82610d15565b604082019050919050565b60006020820190508181036000830152610da081610d64565b9050919050565b7f496e76616c6964206f7267616e697a6174696f6e20696e646578000000000000600082015250565b6000610ddd601a83610b66565b9150610de882610da7565b602082019050919050565b60006020820190508181036000830152610e0c81610dd0565b9050919050565b7f4f7267616e697a6174696f6e2061646472657373206e6f742073657400000000600082015250565b6000610e49601c83610b66565b9150610e5482610e13565b602082019050919050565b60006020820190508181036000830152610e7881610e3c565b9050919050565b7f4e487b7100000000000000000000000000000000000000000000000000000000600052602260045260246000fd5b60006002820490506001821680610ec657607f821691505b602082108103610ed957610ed8610e7f565b5b50919050565b60008190508160005260206000209050919050565b60006020601f8301049050919050565b600082821b905092915050565b600060088302610f417fffffffffffffffffffffffffffffffffffffffffffffffffffffffffffffffff82610f04565b610f4b8683610f04565b95508019841693508086168417925050509392505050565b6000819050919050565b6000610f88610f83610f7e8461089c565b610f63565b61089c565b9050919050565b6000819050919050565b610fa283610f6d565b610fb6610fae82610f8f565b848454610f11565b825550505050565b600090565b610fcb610fbe565b610fd6818484610f99565b505050565b5b81811015610ffa57610fef600082610fc3565b600181019050610fdc565b5050565b601f82111561103f5761101081610edf565b61101984610ef4565b81016020851015611028578190505b61103c61103485610ef4565b830182610fdb565b50505b505050565b600082821c905092915050565b600061106260001984600802611044565b1980831691505092915050565b600061107b8383611051565b9150826002028217905092915050565b61109482610b5b565b67ffffffffffffffff8111156110ad576110ac6108ff565b5b6110b78254610eae565b6110c2828285610ffe565b600060209050601f8311600181146110f557600084156110e3578287015190505b6110ed858261106f565b865550611155565b601f19841661110386610edf565b60005b8281101561112b57848901518255600182019150602085019450602081019050611106565b868310156111485784890151611144601f891682611051565b8355505b6001600288020188555050505b505050505050565b600060808201905081810360008301526111778187610ba1565b905061118660208301866108a6565b6111936040830185610872565b81810360608301526111a58184610ba1565b90509594505050505056fea2646970667358221220069262bd475e02740b1a40978a57a42424a7c6def975a5e06e6719dc4de28e7164736f6c63430008120033",
  "linkReferences": {},
  "deployedLinkReferences": {}
}