{
  "_format": "hh-sol-artifact-1",
  "contractName": "DonationCampaign",
  "sourceName": "contracts/DonationCampaign.sol",
  "abi": [
    {
      "anonymous": false,
      "inputs": [
        {
          "indexed": true,
          "internalType": "address",
          "name": "donor",
          "type": "address"
        },
        {
          "indexed": false,
          "internalType": "string",
          "name": "fullName",
          "type": "string"
        },
        {
          "indexed": false,
          "internalType": "uint256",
          "name": "donationAmount",
          "type": "uint256"
        },
        {
          "indexed": false,
          "internalType": "string",
          "name": "organization",
          "type": "string"
        },
        {
          "indexed": false,
          "internalType": "string",
          "name": "message",
          "type": "string"
        }
      ],
      "name": "DonationReceived",
      "type": "event"
    },
    {
      "inputs": [
        {
          "internalType": "string",
          "name": "_fullName",
          "type": "string"
        },
        {
          "internalType": "uint256",
          "name": "_donationAmount",
          "type": "uint256"
        },
        {
          "internalType": "string",
          "name": "_organization",
          "type": "string"
        },
        {
          "internalType": "string",
          "name": "_message",
          "type": "string"
        }
      ],
      "name": "donate",
      "outputs": [],
      "stateMutability": "nonpayable",
      "type": "function"
    },
    {
      "inputs": [
        {
          "internalType": "uint256",
          "name": "",
          "type": "uint256"
        }
      ],
      "name": "donations",
      "outputs": [
        {
          "internalType": "address",
          "name": "donor",
          "type": "address"
        },
        {
          "internalType": "string",
          "name": "fullName",
          "type": "string"
        },
        {
          "internalType": "uint256",
          "name": "donationAmount",
          "type": "uint256"
        },
        {
          "internalType": "string",
          "name": "organization",
          "type": "string"
        },
        {
          "internalType": "string",
          "name": "message",
          "type": "string"
        }
      ],
      "stateMutability": "view",
      "type": "function"
    },
    {
      "inputs": [],
      "name": "getTotalDonations",
      "outputs": [
        {
          "internalType": "uint256",
          "name": "",
          "type": "uint256"
        }
      ],
      "stateMutability": "view",
      "type": "function"
    }
  ],
  "bytecode": "0x608060405234801561001057600080fd5b50610d55806100206000396000f3fe608060405234801561001057600080fd5b50600436106100415760003560e01c8063496f85f814610046578063777c658f14610062578063f8626af814610080575b600080fd5b610060600480360381019061005b9190610641565b6100b4565b005b61006a61024e565b604051610077919061070b565b60405180910390f35b61009a60048036038101906100959190610726565b6102b3565b6040516100ab959493929190610813565b60405180910390f35b600083116100f7576040517f08c379a00000000000000000000000000000000000000000000000000000000081526004016100ee906108ed565b60405180910390fd5b60006040518060a001604052803373ffffffffffffffffffffffffffffffffffffffff16815260200186815260200185815260200184815260200183815250908060018154018082558091505060019003906000526020600020906005020160009091909190915060008201518160000160006101000a81548173ffffffffffffffffffffffffffffffffffffffff021916908373ffffffffffffffffffffffffffffffffffffffff16021790555060208201518160010190816101bb9190610b19565b506040820151816002015560608201518160030190816101db9190610b19565b5060808201518160040190816101f19190610b19565b5050503373ffffffffffffffffffffffffffffffffffffffff167f90a1c73cdf21aafb5ccb27362b4b4515538d99f548b32a4d569a6d83a86a6248858585856040516102409493929190610beb565b60405180910390a250505050565b6000806000905060005b6000805490508110156102ab576000818154811061027957610278610c45565b5b906000526020600020906005020160020154826102969190610ca3565b915080806102a390610cd7565b915050610258565b508091505090565b600081815481106102c357600080fd5b90600052602060002090600502016000915090508060000160009054906101000a900473ffffffffffffffffffffffffffffffffffffffff169080600101805461030c9061093c565b80601f01602080910402602001604051908101604052809291908181526020018280546103389061093c565b80156103855780601f1061035a57610100808354040283529160200191610385565b820191906000526020600020905b81548152906001019060200180831161036857829003601f168201915b5050505050908060020154908060030180546103a09061093c565b80601f01602080910402602001604051908101604052809291908181526020018280546103cc9061093c565b80156104195780601f106103ee57610100808354040283529160200191610419565b820191906000526020600020905b8154815290600101906020018083116103fc57829003601f168201915b50505050509080600401805461042e9061093c565b80601f016020809104026020016040519081016040528092919081815260200182805461045a9061093c565b80156104a75780601f1061047c576101008083540402835291602001916104a7565b820191906000526020600020905b81548152906001019060200180831161048a57829003601f168201915b5050505050905085565b6000604051905090565b600080fd5b600080fd5b600080fd5b600080fd5b6000601f19601f8301169050919050565b7f4e487b7100000000000000000000000000000000000000000000000000000000600052604160045260246000fd5b610518826104cf565b810181811067ffffffffffffffff82111715610537576105366104e0565b5b80604052505050565b600061054a6104b1565b9050610556828261050f565b919050565b600067ffffffffffffffff821115610576576105756104e0565b5b61057f826104cf565b9050602081019050919050565b82818337600083830152505050565b60006105ae6105a98461055b565b610540565b9050828152602081018484840111156105ca576105c96104ca565b5b6105d584828561058c565b509392505050565b600082601f8301126105f2576105f16104c5565b5b813561060284826020860161059b565b91505092915050565b6000819050919050565b61061e8161060b565b811461062957600080fd5b50565b60008135905061063b81610615565b92915050565b6000806000806080858703121561065b5761065a6104bb565b5b600085013567ffffffffffffffff811115610679576106786104c0565b5b610685878288016105dd565b94505060206106968782880161062c565b935050604085013567ffffffffffffffff8111156106b7576106b66104c0565b5b6106c3878288016105dd565b925050606085013567ffffffffffffffff8111156106e4576106e36104c0565b5b6106f0878288016105dd565b91505092959194509250565b6107058161060b565b82525050565b600060208201905061072060008301846106fc565b92915050565b60006020828403121561073c5761073b6104bb565b5b600061074a8482850161062c565b91505092915050565b600073ffffffffffffffffffffffffffffffffffffffff82169050919050565b600061077e82610753565b9050919050565b61078e81610773565b82525050565b600081519050919050565b600082825260208201905092915050565b60005b838110156107ce5780820151818401526020810190506107b3565b60008484015250505050565b60006107e582610794565b6107ef818561079f565b93506107ff8185602086016107b0565b610808816104cf565b840191505092915050565b600060a0820190506108286000830188610785565b818103602083015261083a81876107da565b905061084960408301866106fc565b818103606083015261085b81856107da565b9050818103608083015261086f81846107da565b90509695505050505050565b7f446f6e6174696f6e20616d6f756e74206d75737420626520677265617465722060008201527f7468616e20300000000000000000000000000000000000000000000000000000602082015250565b60006108d760268361079f565b91506108e28261087b565b604082019050919050565b60006020820190508181036000830152610906816108ca565b9050919050565b7f4e487b7100000000000000000000000000000000000000000000000000000000600052602260045260246000fd5b6000600282049050600182168061095457607f821691505b6020821081036109675761096661090d565b5b50919050565b60008190508160005260206000209050919050565b60006020601f8301049050919050565b600082821b905092915050565b6000600883026109cf7fffffffffffffffffffffffffffffffffffffffffffffffffffffffffffffffff82610992565b6109d98683610992565b95508019841693508086168417925050509392505050565b6000819050919050565b6000610a16610a11610a0c8461060b565b6109f1565b61060b565b9050919050565b6000819050919050565b610a30836109fb565b610a44610a3c82610a1d565b84845461099f565b825550505050565b600090565b610a59610a4c565b610a64818484610a27565b505050565b5b81811015610a8857610a7d600082610a51565b600181019050610a6a565b5050565b601f821115610acd57610a9e8161096d565b610aa784610982565b81016020851015610ab6578190505b610aca610ac285610982565b830182610a69565b50505b505050565b600082821c905092915050565b6000610af060001984600802610ad2565b1980831691505092915050565b6000610b098383610adf565b9150826002028217905092915050565b610b2282610794565b67ffffffffffffffff811115610b3b57610b3a6104e0565b5b610b45825461093c565b610b50828285610a8c565b600060209050601f831160018114610b835760008415610b71578287015190505b610b7b8582610afd565b865550610be3565b601f198416610b918661096d565b60005b82811015610bb957848901518255600182019150602085019450602081019050610b94565b86831015610bd65784890151610bd2601f891682610adf565b8355505b6001600288020188555050505b505050505050565b60006080820190508181036000830152610c0581876107da565b9050610c1460208301866106fc565b8181036040830152610c2681856107da565b90508181036060830152610c3a81846107da565b905095945050505050565b7f4e487b7100000000000000000000000000000000000000000000000000000000600052603260045260246000fd5b7f4e487b7100000000000000000000000000000000000000000000000000000000600052601160045260246000fd5b6000610cae8261060b565b9150610cb98361060b565b9250828201905080821115610cd157610cd0610c74565b5b92915050565b6000610ce28261060b565b91507fffffffffffffffffffffffffffffffffffffffffffffffffffffffffffffffff8203610d1457610d13610c74565b5b60018201905091905056fea264697066735822122092af291fc13ce50a5f9b03a10aa7a9e90f76d71fe02dc17a9f0566bd907a3c9e64736f6c63430008120033",
  "linkReferences": {},
  "deployedLinkReferences": {}
}